{
  "contractName": "NoteContract",
  "abi": [
    {
      "inputs": [],
      "payable": false,
      "stateMutability": "nonpayable",
      "type": "constructor"
    },
    {
      "anonymous": false,
      "inputs": [
        {
          "indexed": false,
          "internalType": "address",
          "name": "",
          "type": "address"
        },
        {
          "indexed": false,
          "internalType": "string",
          "name": "note",
          "type": "string"
        }
      ],
      "name": "NewNote",
      "type": "event"
    },
    {
      "constant": true,
      "inputs": [
        {
          "internalType": "address",
          "name": "",
          "type": "address"
        },
        {
          "internalType": "uint256",
          "name": "",
          "type": "uint256"
        }
      ],
      "name": "notes",
      "outputs": [
        {
          "internalType": "string",
          "name": "",
          "type": "string"
        }
      ],
      "payable": false,
      "stateMutability": "view",
      "type": "function"
    },
    {
      "constant": false,
      "inputs": [
        {
          "internalType": "string",
          "name": "note",
          "type": "string"
        }
      ],
      "name": "addNote",
      "outputs": [],
      "payable": false,
      "stateMutability": "nonpayable",
      "type": "function"
    }
  ],
  "bytecode": "0x608060405234801561001057600080fd5b506104ab806100206000396000f3fe608060405234801561001057600080fd5b50600436106100365760003560e01c8063a4edff471461003b578063e0b117ff146100f6575b600080fd5b6100f46004803603602081101561005157600080fd5b810190808035906020019064010000000081111561006e57600080fd5b82018360208201111561008057600080fd5b803590602001918460018302840111640100000000831117156100a257600080fd5b91908080601f016020809104026020016040519081016040528093929190818152602001838380828437600081840152601f19601f8201169050808301925050505050505091929192905050506101bd565b005b6101426004803603604081101561010c57600080fd5b81019080803573ffffffffffffffffffffffffffffffffffffffff1690602001909291908035906020019092919050505061030b565b6040518080602001828103825283818151815260200191508051906020019080838360005b83811015610182578082015181840152602081019050610167565b50505050905090810190601f1680156101af5780820380516001836020036101000a031916815260200191505b509250505060405180910390f35b6000803373ffffffffffffffffffffffffffffffffffffffff1673ffffffffffffffffffffffffffffffffffffffff1681526020019081526020016000208190806001815401808255809150509060018203906000526020600020016000909192909190915090805190602001906102369291906103d1565b50507ff2555d00e065d582c4653357dbcf43cf8e0d291c35cc0faad6cf8467e8398c923382604051808373ffffffffffffffffffffffffffffffffffffffff1673ffffffffffffffffffffffffffffffffffffffff16815260200180602001828103825283818151815260200191508051906020019080838360005b838110156102cd5780820151818401526020810190506102b2565b50505050905090810190601f1680156102fa5780820380516001836020036101000a031916815260200191505b50935050505060405180910390a150565b6000602052816000526040600020818154811061032457fe5b90600052602060002001600091509150508054600181600116156101000203166002900480601f0160208091040260200160405190810160405280929190818152602001828054600181600116156101000203166002900480156103c95780601f1061039e576101008083540402835291602001916103c9565b820191906000526020600020905b8154815290600101906020018083116103ac57829003601f168201915b505050505081565b828054600181600116156101000203166002900490600052602060002090601f016020900481019282601f1061041257805160ff1916838001178555610440565b82800160010185558215610440579182015b8281111561043f578251825591602001919060010190610424565b5b50905061044d9190610451565b5090565b61047391905b8082111561046f576000816000905550600101610457565b5090565b9056fea265627a7a72315820c0246cd97fafedf2df1c81d21149edc4272563677bb42c1ba18f1204cab8a4c164736f6c63430005100032",
  "source": "pragma solidity ^0.5.0;\n\ncontract NoteContract{\n    mapping(address => string []) public notes;\n\n    constructor() public {\n\n    }\n\n    event NewNote(address,string note);\n\n    function addNote(string memory note) public{\n        notes[msg.sender].push(note);\n        emit NewNote(msg.sender, note);\n    }\n\n\n}",
  "sourcePath": "/Users/hounaikuo/Documents/project/My-Chain/noteOnChain/contracts/NoteContract.sol",
  "compiler": {
    "name": "solc",
    "version": "0.5.16+commit.9c3226ce.Emscripten.clang"
  },
  "schemaVersion": "3.4.11",
  "updatedAt": "2022-12-16T08:41:37.981Z",
  "networkType": "ethereum",
  "devdoc": {
    "methods": {}
  },
  "userdoc": {
    "methods": {}
  }
}